{
  "_format": "hh-sol-artifact-1",
  "contractName": "Dappazon",
  "sourceName": "contracts/Dappazon.sol",
  "abi": [
    {
      "inputs": [],
      "stateMutability": "nonpayable",
      "type": "constructor"
    },
    {
      "anonymous": false,
      "inputs": [
        {
          "indexed": false,
          "internalType": "address",
          "name": "buyer",
          "type": "address"
        },
        {
          "indexed": false,
          "internalType": "uint256",
          "name": "orderId",
          "type": "uint256"
        },
        {
          "indexed": false,
          "internalType": "uint256",
          "name": "itemId",
          "type": "uint256"
        }
      ],
      "name": "Buy",
      "type": "event"
    },
    {
      "anonymous": false,
      "inputs": [
        {
          "indexed": false,
          "internalType": "string",
          "name": "Name",
          "type": "string"
        },
        {
          "indexed": false,
          "internalType": "uint256",
          "name": "cost",
          "type": "uint256"
        },
        {
          "indexed": false,
          "internalType": "uint256",
          "name": "quantity",
          "type": "uint256"
        }
      ],
      "name": "List",
      "type": "event"
    },
    {
      "inputs": [
        {
          "internalType": "uint256",
          "name": "_id",
          "type": "uint256"
        }
      ],
      "name": "buy",
      "outputs": [],
      "stateMutability": "payable",
      "type": "function"
    },
    {
      "inputs": [
        {
          "internalType": "uint256",
          "name": "",
          "type": "uint256"
        }
      ],
      "name": "items",
      "outputs": [
        {
          "internalType": "uint256",
          "name": "id",
          "type": "uint256"
        },
        {
          "internalType": "string",
          "name": "name",
          "type": "string"
        },
        {
          "internalType": "string",
          "name": "category",
          "type": "string"
        },
        {
          "internalType": "string",
          "name": "image",
          "type": "string"
        },
        {
          "internalType": "uint256",
          "name": "cost",
          "type": "uint256"
        },
        {
          "internalType": "uint256",
          "name": "rating",
          "type": "uint256"
        },
        {
          "internalType": "uint256",
          "name": "stock",
          "type": "uint256"
        }
      ],
      "stateMutability": "view",
      "type": "function"
    },
    {
      "inputs": [
        {
          "internalType": "uint256",
          "name": "_id",
          "type": "uint256"
        },
        {
          "internalType": "string",
          "name": "_name",
          "type": "string"
        },
        {
          "internalType": "string",
          "name": "_category",
          "type": "string"
        },
        {
          "internalType": "string",
          "name": "_image",
          "type": "string"
        },
        {
          "internalType": "uint256",
          "name": "_cost",
          "type": "uint256"
        },
        {
          "internalType": "uint256",
          "name": "_rating",
          "type": "uint256"
        },
        {
          "internalType": "uint256",
          "name": "_stock",
          "type": "uint256"
        }
      ],
      "name": "list",
      "outputs": [],
      "stateMutability": "nonpayable",
      "type": "function"
    },
    {
      "inputs": [
        {
          "internalType": "address",
          "name": "",
          "type": "address"
        }
      ],
      "name": "orderCount",
      "outputs": [
        {
          "internalType": "uint256",
          "name": "",
          "type": "uint256"
        }
      ],
      "stateMutability": "view",
      "type": "function"
    },
    {
      "inputs": [
        {
          "internalType": "address",
          "name": "",
          "type": "address"
        },
        {
          "internalType": "uint256",
          "name": "",
          "type": "uint256"
        }
      ],
      "name": "orders",
      "outputs": [
        {
          "internalType": "uint256",
          "name": "time",
          "type": "uint256"
        },
        {
          "components": [
            {
              "internalType": "uint256",
              "name": "id",
              "type": "uint256"
            },
            {
              "internalType": "string",
              "name": "name",
              "type": "string"
            },
            {
              "internalType": "string",
              "name": "category",
              "type": "string"
            },
            {
              "internalType": "string",
              "name": "image",
              "type": "string"
            },
            {
              "internalType": "uint256",
              "name": "cost",
              "type": "uint256"
            },
            {
              "internalType": "uint256",
              "name": "rating",
              "type": "uint256"
            },
            {
              "internalType": "uint256",
              "name": "stock",
              "type": "uint256"
            }
          ],
          "internalType": "struct Dappazon.Item",
          "name": "item",
          "type": "tuple"
        }
      ],
      "stateMutability": "view",
      "type": "function"
    },
    {
      "inputs": [],
      "name": "owner",
      "outputs": [
        {
          "internalType": "address",
          "name": "",
          "type": "address"
        }
      ],
      "stateMutability": "view",
      "type": "function"
    },
    {
      "inputs": [],
      "name": "withdraw",
      "outputs": [],
      "stateMutability": "nonpayable",
      "type": "function"
    }
  ],
  "bytecode": "0x608060405234801561001057600080fd5b50336000806101000a81548173ffffffffffffffffffffffffffffffffffffffff021916908373ffffffffffffffffffffffffffffffffffffffff16021790555061179d806100606000396000f3fe6080604052600436106100705760003560e01c80638da5cb5b1161004e5780638da5cb5b14610107578063bfb231d214610132578063d96a094a14610175578063eea8a7e81461019157610070565b80633ccfd60b14610075578063713d856b1461008c578063793b8c6d146100c9575b600080fd5b34801561008157600080fd5b5061008a6101ba565b005b34801561009857600080fd5b506100b360048036038101906100ae9190610d2c565b6102ac565b6040516100c09190610d72565b60405180910390f35b3480156100d557600080fd5b506100f060048036038101906100eb9190610db9565b6102c4565b6040516100fe929190610f42565b60405180910390f35b34801561011357600080fd5b5061011c6104dd565b6040516101299190610f81565b60405180910390f35b34801561013e57600080fd5b5061015960048036038101906101549190610f9c565b610501565b60405161016c9796959493929190611013565b60405180910390f35b61018f600480360381019061018a9190610f9c565b6106db565b005b34801561019d57600080fd5b506101b860048036038101906101b391906111cc565b610b65565b005b3373ffffffffffffffffffffffffffffffffffffffff1660008054906101000a900473ffffffffffffffffffffffffffffffffffffffff1673ffffffffffffffffffffffffffffffffffffffff161461021257600080fd5b60008060009054906101000a900473ffffffffffffffffffffffffffffffffffffffff1673ffffffffffffffffffffffffffffffffffffffff1647604051610259906112f3565b60006040518083038185875af1925050503d8060008114610296576040519150601f19603f3d011682016040523d82523d6000602084013e61029b565b606091505b50509050806102a957600080fd5b50565b60016020528060005260406000206000915090505481565b600360205281600052604060002060205280600052604060002060009150915050806000015490806001016040518060e00160405290816000820154815260200160018201805461031490611337565b80601f016020809104026020016040519081016040528092919081815260200182805461034090611337565b801561038d5780601f106103625761010080835404028352916020019161038d565b820191906000526020600020905b81548152906001019060200180831161037057829003601f168201915b505050505081526020016002820180546103a690611337565b80601f01602080910402602001604051908101604052809291908181526020018280546103d290611337565b801561041f5780601f106103f45761010080835404028352916020019161041f565b820191906000526020600020905b81548152906001019060200180831161040257829003601f168201915b5050505050815260200160038201805461043890611337565b80601f016020809104026020016040519081016040528092919081815260200182805461046490611337565b80156104b15780601f10610486576101008083540402835291602001916104b1565b820191906000526020600020905b81548152906001019060200180831161049457829003601f168201915b505050505081526020016004820154815260200160058201548152602001600682015481525050905082565b60008054906101000a900473ffffffffffffffffffffffffffffffffffffffff1681565b600260205280600052604060002060009150905080600001549080600101805461052a90611337565b80601f016020809104026020016040519081016040528092919081815260200182805461055690611337565b80156105a35780601f10610578576101008083540402835291602001916105a3565b820191906000526020600020905b81548152906001019060200180831161058657829003601f168201915b5050505050908060020180546105b890611337565b80601f01602080910402602001604051908101604052809291908181526020018280546105e490611337565b80156106315780601f1061060657610100808354040283529160200191610631565b820191906000526020600020905b81548152906001019060200180831161061457829003601f168201915b50505050509080600301805461064690611337565b80601f016020809104026020016040519081016040528092919081815260200182805461067290611337565b80156106bf5780601f10610694576101008083540402835291602001916106bf565b820191906000526020600020905b8154815290600101906020018083116106a257829003601f168201915b5050505050908060040154908060050154908060060154905087565b6000600260008381526020019081526020016000206040518060e00160405290816000820154815260200160018201805461071590611337565b80601f016020809104026020016040519081016040528092919081815260200182805461074190611337565b801561078e5780601f106107635761010080835404028352916020019161078e565b820191906000526020600020905b81548152906001019060200180831161077157829003601f168201915b505050505081526020016002820180546107a790611337565b80601f01602080910402602001604051908101604052809291908181526020018280546107d390611337565b80156108205780601f106107f557610100808354040283529160200191610820565b820191906000526020600020905b81548152906001019060200180831161080357829003601f168201915b5050505050815260200160038201805461083990611337565b80601f016020809104026020016040519081016040528092919081815260200182805461086590611337565b80156108b25780601f10610887576101008083540402835291602001916108b2565b820191906000526020600020905b81548152906001019060200180831161089557829003601f168201915b505050505081526020016004820154815260200160058201548152602001600682015481525050905060008160c00151116108ec57600080fd5b8060800151341015610933576040517f08c379a000000000000000000000000000000000000000000000000000000000815260040161092a906113b4565b60405180910390fd5b60006040518060400160405280428152602001838152509050600160003373ffffffffffffffffffffffffffffffffffffffff1673ffffffffffffffffffffffffffffffffffffffff168152602001908152602001600020600081548092919061099c90611403565b919050555080600360003373ffffffffffffffffffffffffffffffffffffffff1673ffffffffffffffffffffffffffffffffffffffff1681526020019081526020016000206000600160003373ffffffffffffffffffffffffffffffffffffffff1673ffffffffffffffffffffffffffffffffffffffff16815260200190815260200160002054815260200190815260200160002060008201518160000155602082015181600101600082015181600001556020820151816001019081610a6391906115f7565b506040820151816002019081610a7991906115f7565b506060820151816003019081610a8f91906115f7565b506080820151816004015560a0820151816005015560c0820151816006015550509050508160c0018051809190610ac5906116c9565b81525060026000858152602001908152602001600020600601819055507f1cbc5ab135991bd2b6a4b034a04aa2aa086dac1371cb9b16b8b5e2ed6b036bed33600160003373ffffffffffffffffffffffffffffffffffffffff1673ffffffffffffffffffffffffffffffffffffffff168152602001908152602001600020548460000151604051610b58939291906116f2565b60405180910390a1505050565b3373ffffffffffffffffffffffffffffffffffffffff1660008054906101000a900473ffffffffffffffffffffffffffffffffffffffff1673ffffffffffffffffffffffffffffffffffffffff1614610bbd57600080fd5b60006040518060e0016040528089815260200188815260200187815260200186815260200185815260200184815260200183815250905080600260008a8152602001908152602001600020600082015181600001556020820151816001019081610c2791906115f7565b506040820151816002019081610c3d91906115f7565b506060820151816003019081610c5391906115f7565b506080820151816004015560a0820151816005015560c082015181600601559050507ffdbe2a012c10ec01592653978eaa09b5ca60b143a0e617505b2ebcbd911ec5b8878584604051610ca893929190611729565b60405180910390a15050505050505050565b6000604051905090565b600080fd5b600080fd5b600073ffffffffffffffffffffffffffffffffffffffff82169050919050565b6000610cf982610cce565b9050919050565b610d0981610cee565b8114610d1457600080fd5b50565b600081359050610d2681610d00565b92915050565b600060208284031215610d4257610d41610cc4565b5b6000610d5084828501610d17565b91505092915050565b6000819050919050565b610d6c81610d59565b82525050565b6000602082019050610d876000830184610d63565b92915050565b610d9681610d59565b8114610da157600080fd5b50565b600081359050610db381610d8d565b92915050565b60008060408385031215610dd057610dcf610cc4565b5b6000610dde85828601610d17565b9250506020610def85828601610da4565b9150509250929050565b610e0281610d59565b82525050565b600081519050919050565b600082825260208201905092915050565b60005b83811015610e42578082015181840152602081019050610e27565b60008484015250505050565b6000601f19601f8301169050919050565b6000610e6a82610e08565b610e748185610e13565b9350610e84818560208601610e24565b610e8d81610e4e565b840191505092915050565b600060e083016000830151610eb06000860182610df9565b5060208301518482036020860152610ec88282610e5f565b91505060408301518482036040860152610ee28282610e5f565b91505060608301518482036060860152610efc8282610e5f565b9150506080830151610f116080860182610df9565b5060a0830151610f2460a0860182610df9565b5060c0830151610f3760c0860182610df9565b508091505092915050565b6000604082019050610f576000830185610d63565b8181036020830152610f698184610e98565b90509392505050565b610f7b81610cee565b82525050565b6000602082019050610f966000830184610f72565b92915050565b600060208284031215610fb257610fb1610cc4565b5b6000610fc084828501610da4565b91505092915050565b600082825260208201905092915050565b6000610fe582610e08565b610fef8185610fc9565b9350610fff818560208601610e24565b61100881610e4e565b840191505092915050565b600060e082019050611028600083018a610d63565b818103602083015261103a8189610fda565b9050818103604083015261104e8188610fda565b905081810360608301526110628187610fda565b90506110716080830186610d63565b61107e60a0830185610d63565b61108b60c0830184610d63565b98975050505050505050565b600080fd5b600080fd5b7f4e487b7100000000000000000000000000000000000000000000000000000000600052604160045260246000fd5b6110d982610e4e565b810181811067ffffffffffffffff821117156110f8576110f76110a1565b5b80604052505050565b600061110b610cba565b905061111782826110d0565b919050565b600067ffffffffffffffff821115611137576111366110a1565b5b61114082610e4e565b9050602081019050919050565b82818337600083830152505050565b600061116f61116a8461111c565b611101565b90508281526020810184848401111561118b5761118a61109c565b5b61119684828561114d565b509392505050565b600082601f8301126111b3576111b2611097565b5b81356111c384826020860161115c565b91505092915050565b600080600080600080600060e0888a0312156111eb576111ea610cc4565b5b60006111f98a828b01610da4565b975050602088013567ffffffffffffffff81111561121a57611219610cc9565b5b6112268a828b0161119e565b965050604088013567ffffffffffffffff81111561124757611246610cc9565b5b6112538a828b0161119e565b955050606088013567ffffffffffffffff81111561127457611273610cc9565b5b6112808a828b0161119e565b94505060806112918a828b01610da4565b93505060a06112a28a828b01610da4565b92505060c06112b38a828b01610da4565b91505092959891949750929550565b600081905092915050565b50565b60006112dd6000836112c2565b91506112e8826112cd565b600082019050919050565b60006112fe826112d0565b9150819050919050565b7f4e487b7100000000000000000000000000000000000000000000000000000000600052602260045260246000fd5b6000600282049050600182168061134f57607f821691505b60208210810361136257611361611308565b5b50919050565b7f496e737566666963656e742046756e6473207472616e73666572656400000000600082015250565b600061139e601c83610fc9565b91506113a982611368565b602082019050919050565b600060208201905081810360008301526113cd81611391565b9050919050565b7f4e487b7100000000000000000000000000000000000000000000000000000000600052601160045260246000fd5b600061140e82610d59565b91507fffffffffffffffffffffffffffffffffffffffffffffffffffffffffffffffff82036114405761143f6113d4565b5b600182019050919050565b60008190508160005260206000209050919050565b60006020601f8301049050919050565b600082821b905092915050565b6000600883026114ad7fffffffffffffffffffffffffffffffffffffffffffffffffffffffffffffffff82611470565b6114b78683611470565b95508019841693508086168417925050509392505050565b6000819050919050565b60006114f46114ef6114ea84610d59565b6114cf565b610d59565b9050919050565b6000819050919050565b61150e836114d9565b61152261151a826114fb565b84845461147d565b825550505050565b600090565b61153761152a565b611542818484611505565b505050565b5b818110156115665761155b60008261152f565b600181019050611548565b5050565b601f8211156115ab5761157c8161144b565b61158584611460565b81016020851015611594578190505b6115a86115a085611460565b830182611547565b50505b505050565b600082821c905092915050565b60006115ce600019846008026115b0565b1980831691505092915050565b60006115e783836115bd565b9150826002028217905092915050565b61160082610e08565b67ffffffffffffffff811115611619576116186110a1565b5b6116238254611337565b61162e82828561156a565b600060209050601f831160018114611661576000841561164f578287015190505b61165985826115db565b8655506116c1565b601f19841661166f8661144b565b60005b8281101561169757848901518255600182019150602085019450602081019050611672565b868310156116b457848901516116b0601f8916826115bd565b8355505b6001600288020188555050505b505050505050565b60006116d482610d59565b9150600082036116e7576116e66113d4565b5b600182039050919050565b60006060820190506117076000830186610f72565b6117146020830185610d63565b6117216040830184610d63565b949350505050565b600060608201905081810360008301526117438186610fda565b90506117526020830185610d63565b61175f6040830184610d63565b94935050505056fea2646970667358221220de66c3e565f29f1ce80431e01a2ff497cea97721a3d60a037d3d35f78c7e502764736f6c63430008110033",
  "linkReferences": {},
  "deployedLinkReferences": {}
}